{
  "contractName": "Rentals",
  "abi": [
    {
      "inputs": [],
      "stateMutability": "nonpayable",
      "type": "constructor"
    },
    {
      "anonymous": false,
      "inputs": [
        {
          "indexed": false,
          "internalType": "uint256",
          "name": "unitNumber",
          "type": "uint256"
        }
      ],
      "name": "LogForRent",
      "type": "event"
    },
    {
      "anonymous": false,
      "inputs": [
        {
          "indexed": false,
          "internalType": "uint256",
          "name": "unitNumber",
          "type": "uint256"
        }
      ],
      "name": "LogUnitAdded",
      "type": "event"
    },
    {
      "anonymous": false,
      "inputs": [
        {
          "indexed": true,
          "internalType": "address",
          "name": "previousOwner",
          "type": "address"
        },
        {
          "indexed": true,
          "internalType": "address",
          "name": "newOwner",
          "type": "address"
        }
      ],
      "name": "OwnershipTransferred",
      "type": "event"
    },
    {
      "inputs": [],
      "name": "owner",
      "outputs": [
        {
          "internalType": "address",
          "name": "",
          "type": "address"
        }
      ],
      "stateMutability": "view",
      "type": "function",
      "constant": true
    },
    {
      "inputs": [],
      "name": "renounceOwnership",
      "outputs": [],
      "stateMutability": "nonpayable",
      "type": "function"
    },
    {
      "inputs": [
        {
          "internalType": "address",
          "name": "newOwner",
          "type": "address"
        }
      ],
      "name": "transferOwnership",
      "outputs": [],
      "stateMutability": "nonpayable",
      "type": "function"
    },
    {
      "inputs": [],
      "name": "unitCount",
      "outputs": [
        {
          "internalType": "uint256",
          "name": "",
          "type": "uint256"
        }
      ],
      "stateMutability": "view",
      "type": "function",
      "constant": true
    },
    {
      "inputs": [
        {
          "internalType": "uint256",
          "name": "",
          "type": "uint256"
        }
      ],
      "name": "units",
      "outputs": [
        {
          "internalType": "uint256",
          "name": "unitNumber",
          "type": "uint256"
        },
        {
          "internalType": "string",
          "name": "unitAddress",
          "type": "string"
        },
        {
          "internalType": "string",
          "name": "cid",
          "type": "string"
        },
        {
          "internalType": "enum Rentals.State",
          "name": "state",
          "type": "uint8"
        },
        {
          "internalType": "uint256",
          "name": "rent",
          "type": "uint256"
        },
        {
          "internalType": "uint256",
          "name": "deposit",
          "type": "uint256"
        },
        {
          "internalType": "uint256",
          "name": "area",
          "type": "uint256"
        },
        {
          "internalType": "uint256",
          "name": "bhk",
          "type": "uint256"
        },
        {
          "internalType": "uint256",
          "name": "bathrooms",
          "type": "uint256"
        },
        {
          "internalType": "string",
          "name": "reraNumber",
          "type": "string"
        },
        {
          "internalType": "address payable",
          "name": "landlord",
          "type": "address"
        },
        {
          "internalType": "address payable",
          "name": "tenant",
          "type": "address"
        }
      ],
      "stateMutability": "view",
      "type": "function",
      "constant": true
    },
    {
      "inputs": [
        {
          "internalType": "string",
          "name": "_unitAddress",
          "type": "string"
        },
        {
          "internalType": "string",
          "name": "_cid",
          "type": "string"
        },
        {
          "internalType": "uint256",
          "name": "_rent",
          "type": "uint256"
        },
        {
          "internalType": "uint256",
          "name": "_deposit",
          "type": "uint256"
        },
        {
          "internalType": "uint256",
          "name": "_area",
          "type": "uint256"
        },
        {
          "internalType": "uint256",
          "name": "_bhk",
          "type": "uint256"
        },
        {
          "internalType": "uint256",
          "name": "_bathrooms",
          "type": "uint256"
        },
        {
          "internalType": "string",
          "name": "_reraNumber",
          "type": "string"
        }
      ],
      "name": "addUnit",
      "outputs": [],
      "stateMutability": "nonpayable",
      "type": "function"
    },
    {
      "inputs": [
        {
          "internalType": "uint256",
          "name": "_unitNumber",
          "type": "uint256"
        }
      ],
      "name": "fetchUnit",
      "outputs": [
        {
          "internalType": "uint256",
          "name": "unitNumber",
          "type": "uint256"
        },
        {
          "internalType": "string",
          "name": "unitAddress",
          "type": "string"
        },
        {
          "internalType": "string",
          "name": "cid",
          "type": "string"
        },
        {
          "internalType": "uint256",
          "name": "state",
          "type": "uint256"
        },
        {
          "internalType": "uint256",
          "name": "rent",
          "type": "uint256"
        },
        {
          "internalType": "uint256",
          "name": "deposit",
          "type": "uint256"
        },
        {
          "internalType": "uint256",
          "name": "area",
          "type": "uint256"
        },
        {
          "internalType": "uint256",
          "name": "bhk",
          "type": "uint256"
        },
        {
          "internalType": "uint256",
          "name": "bathrooms",
          "type": "uint256"
        },
        {
          "internalType": "string",
          "name": "reraNumber",
          "type": "string"
        },
        {
          "internalType": "address",
          "name": "landlord",
          "type": "address"
        },
        {
          "internalType": "address",
          "name": "tenant",
          "type": "address"
        }
      ],
      "stateMutability": "view",
      "type": "function",
      "constant": true
    }
  ],
  "bytecode": "0x60806040526001805534801561001457600080fd5b5061003161002661003660201b60201c565b61003e60201b60201c565b610102565b600033905090565b60008060009054906101000a900473ffffffffffffffffffffffffffffffffffffffff169050816000806101000a81548173ffffffffffffffffffffffffffffffffffffffff021916908373ffffffffffffffffffffffffffffffffffffffff1602179055508173ffffffffffffffffffffffffffffffffffffffff168173ffffffffffffffffffffffffffffffffffffffff167f8be0079c531659141344cd1fd0a4f28419497f9722a3daafe3b4186f6b6457e060405160405180910390a35050565b611664806101116000396000f3fe608060405234801561001057600080fd5b506004361061007d5760003560e01c80638da5cb5b1161005b5780638da5cb5b146100e3578063e5fba6cc14610101578063f2fde38b1461013c578063f584fbf6146101585761007d565b8063083c4fba14610082578063715018a61461009e5780638b7b0537146100a8575b600080fd5b61009c60048036038101906100979190610d24565b610176565b005b6100a66103fa565b005b6100c260048036038101906100bd9190610e2e565b61040e565b6040516100da9c9b9a99989796959493929190610f2a565b60405180910390f35b6100eb610753565b6040516100f89190610ff9565b60405180910390f35b61011b60048036038101906101169190610e2e565b61077c565b6040516101339c9b9a999897969594939291906110ac565b60405180910390f35b610156600480360381019061015191906111a7565b6109c1565b005b610160610a44565b60405161016d91906111d4565b60405180910390f35b61017e610a4a565b6040518061018001604052806001548152602001898152602001888152602001600060018111156101b2576101b1611014565b5b81526020018781526020018681526020018581526020018481526020018381526020018281526020013373ffffffffffffffffffffffffffffffffffffffff168152602001600073ffffffffffffffffffffffffffffffffffffffff1681525060026000600154815260200190815260200160002060008201518160000155602082015181600101908161024691906113fb565b50604082015181600201908161025c91906113fb565b5060608201518160030160006101000a81548160ff0219169083600181111561028857610287611014565b5b02179055506080820151816004015560a0820151816005015560c0820151816006015560e0820151816007015561010082015181600801556101208201518160090190816102d691906113fb565b5061014082015181600a0160006101000a81548173ffffffffffffffffffffffffffffffffffffffff021916908373ffffffffffffffffffffffffffffffffffffffff16021790555061016082015181600b0160006101000a81548173ffffffffffffffffffffffffffffffffffffffff021916908373ffffffffffffffffffffffffffffffffffffffff1602179055509050507f9f766be9553a6f64c84baf47414111171633afad6f2ad2d04e59c7f30a92b9b060015460405161039b91906111d4565b60405180910390a17faff779a2b0f7d6ac7566ca9920c1a4cf550c9691db23499a78d4eac3875b76b26001546040516103d491906111d4565b60405180910390a1600180546103ea91906114fc565b6001819055505050505050505050565b610402610a4a565b61040c6000610ac8565b565b60006060806000806000806000806060600080600260008e8152602001908152602001600020600001549b50600260008e8152602001908152602001600020600101805461045b9061121e565b80601f01602080910402602001604051908101604052809291908181526020018280546104879061121e565b80156104d45780601f106104a9576101008083540402835291602001916104d4565b820191906000526020600020905b8154815290600101906020018083116104b757829003601f168201915b50505050509a50600260008e815260200190815260200160002060020180546104fc9061121e565b80601f01602080910402602001604051908101604052809291908181526020018280546105289061121e565b80156105755780601f1061054a57610100808354040283529160200191610575565b820191906000526020600020905b81548152906001019060200180831161055857829003601f168201915b50505050509950600260008e815260200190815260200160002060030160009054906101000a900460ff1660018111156105b2576105b1611014565b5b9850600260008e8152602001908152602001600020600401549750600260008e8152602001908152602001600020600501549650600260008e8152602001908152602001600020600601549550600260008e8152602001908152602001600020600701549450600260008e8152602001908152602001600020600801549350600260008e815260200190815260200160002060090180546106529061121e565b80601f016020809104026020016040519081016040528092919081815260200182805461067e9061121e565b80156106cb5780601f106106a0576101008083540402835291602001916106cb565b820191906000526020600020905b8154815290600101906020018083116106ae57829003601f168201915b50505050509250600260008e8152602001908152602001600020600a0160009054906101000a900473ffffffffffffffffffffffffffffffffffffffff169150600260008e8152602001908152602001600020600b0160009054906101000a900473ffffffffffffffffffffffffffffffffffffffff16905091939597999b5091939597999b565b60008060009054906101000a900473ffffffffffffffffffffffffffffffffffffffff16905090565b60026020528060005260406000206000915090508060000154908060010180546107a59061121e565b80601f01602080910402602001604051908101604052809291908181526020018280546107d19061121e565b801561081e5780601f106107f35761010080835404028352916020019161081e565b820191906000526020600020905b81548152906001019060200180831161080157829003601f168201915b5050505050908060020180546108339061121e565b80601f016020809104026020016040519081016040528092919081815260200182805461085f9061121e565b80156108ac5780601f10610881576101008083540402835291602001916108ac565b820191906000526020600020905b81548152906001019060200180831161088f57829003601f168201915b5050505050908060030160009054906101000a900460ff16908060040154908060050154908060060154908060070154908060080154908060090180546108f29061121e565b80601f016020809104026020016040519081016040528092919081815260200182805461091e9061121e565b801561096b5780601f106109405761010080835404028352916020019161096b565b820191906000526020600020905b81548152906001019060200180831161094e57829003601f168201915b50505050509080600a0160009054906101000a900473ffffffffffffffffffffffffffffffffffffffff169080600b0160009054906101000a900473ffffffffffffffffffffffffffffffffffffffff1690508c565b6109c9610a4a565b600073ffffffffffffffffffffffffffffffffffffffff168173ffffffffffffffffffffffffffffffffffffffff1603610a38576040517f08c379a0000000000000000000000000000000000000000000000000000000008152600401610a2f906115a2565b60405180910390fd5b610a4181610ac8565b50565b60015481565b610a52610b8c565b73ffffffffffffffffffffffffffffffffffffffff16610a70610753565b73ffffffffffffffffffffffffffffffffffffffff1614610ac6576040517f08c379a0000000000000000000000000000000000000000000000000000000008152600401610abd9061160e565b60405180910390fd5b565b60008060009054906101000a900473ffffffffffffffffffffffffffffffffffffffff169050816000806101000a81548173ffffffffffffffffffffffffffffffffffffffff021916908373ffffffffffffffffffffffffffffffffffffffff1602179055508173ffffffffffffffffffffffffffffffffffffffff168173ffffffffffffffffffffffffffffffffffffffff167f8be0079c531659141344cd1fd0a4f28419497f9722a3daafe3b4186f6b6457e060405160405180910390a35050565b600033905090565b6000604051905090565b600080fd5b600080fd5b600080fd5b600080fd5b6000601f19601f8301169050919050565b7f4e487b7100000000000000000000000000000000000000000000000000000000600052604160045260246000fd5b610bfb82610bb2565b810181811067ffffffffffffffff82111715610c1a57610c19610bc3565b5b80604052505050565b6000610c2d610b94565b9050610c398282610bf2565b919050565b600067ffffffffffffffff821115610c5957610c58610bc3565b5b610c6282610bb2565b9050602081019050919050565b82818337600083830152505050565b6000610c91610c8c84610c3e565b610c23565b905082815260208101848484011115610cad57610cac610bad565b5b610cb8848285610c6f565b509392505050565b600082601f830112610cd557610cd4610ba8565b5b8135610ce5848260208601610c7e565b91505092915050565b6000819050919050565b610d0181610cee565b8114610d0c57600080fd5b50565b600081359050610d1e81610cf8565b92915050565b600080600080600080600080610100898b031215610d4557610d44610b9e565b5b600089013567ffffffffffffffff811115610d6357610d62610ba3565b5b610d6f8b828c01610cc0565b985050602089013567ffffffffffffffff811115610d9057610d8f610ba3565b5b610d9c8b828c01610cc0565b9750506040610dad8b828c01610d0f565b9650506060610dbe8b828c01610d0f565b9550506080610dcf8b828c01610d0f565b94505060a0610de08b828c01610d0f565b93505060c0610df18b828c01610d0f565b92505060e089013567ffffffffffffffff811115610e1257610e11610ba3565b5b610e1e8b828c01610cc0565b9150509295985092959890939650565b600060208284031215610e4457610e43610b9e565b5b6000610e5284828501610d0f565b91505092915050565b610e6481610cee565b82525050565b600081519050919050565b600082825260208201905092915050565b60005b83811015610ea4578082015181840152602081019050610e89565b60008484015250505050565b6000610ebb82610e6a565b610ec58185610e75565b9350610ed5818560208601610e86565b610ede81610bb2565b840191505092915050565b600073ffffffffffffffffffffffffffffffffffffffff82169050919050565b6000610f1482610ee9565b9050919050565b610f2481610f09565b82525050565b600061018082019050610f40600083018f610e5b565b8181036020830152610f52818e610eb0565b90508181036040830152610f66818d610eb0565b9050610f75606083018c610e5b565b610f82608083018b610e5b565b610f8f60a083018a610e5b565b610f9c60c0830189610e5b565b610fa960e0830188610e5b565b610fb7610100830187610e5b565b818103610120830152610fca8186610eb0565b9050610fda610140830185610f1b565b610fe8610160830184610f1b565b9d9c50505050505050505050505050565b600060208201905061100e6000830184610f1b565b92915050565b7f4e487b7100000000000000000000000000000000000000000000000000000000600052602160045260246000fd5b6002811061105457611053611014565b5b50565b600081905061106582611043565b919050565b600061107582611057565b9050919050565b6110858161106a565b82525050565b600061109682610ee9565b9050919050565b6110a68161108b565b82525050565b6000610180820190506110c2600083018f610e5b565b81810360208301526110d4818e610eb0565b905081810360408301526110e8818d610eb0565b90506110f7606083018c61107c565b611104608083018b610e5b565b61111160a083018a610e5b565b61111e60c0830189610e5b565b61112b60e0830188610e5b565b611139610100830187610e5b565b81810361012083015261114c8186610eb0565b905061115c61014083018561109d565b61116a61016083018461109d565b9d9c50505050505050505050505050565b61118481610f09565b811461118f57600080fd5b50565b6000813590506111a18161117b565b92915050565b6000602082840312156111bd576111bc610b9e565b5b60006111cb84828501611192565b91505092915050565b60006020820190506111e96000830184610e5b565b92915050565b7f4e487b7100000000000000000000000000000000000000000000000000000000600052602260045260246000fd5b6000600282049050600182168061123657607f821691505b602082108103611249576112486111ef565b5b50919050565b60008190508160005260206000209050919050565b60006020601f8301049050919050565b600082821b905092915050565b6000600883026112b17fffffffffffffffffffffffffffffffffffffffffffffffffffffffffffffffff82611274565b6112bb8683611274565b95508019841693508086168417925050509392505050565b6000819050919050565b60006112f86112f36112ee84610cee565b6112d3565b610cee565b9050919050565b6000819050919050565b611312836112dd565b61132661131e826112ff565b848454611281565b825550505050565b600090565b61133b61132e565b611346818484611309565b505050565b5b8181101561136a5761135f600082611333565b60018101905061134c565b5050565b601f8211156113af576113808161124f565b61138984611264565b81016020851015611398578190505b6113ac6113a485611264565b83018261134b565b50505b505050565b600082821c905092915050565b60006113d2600019846008026113b4565b1980831691505092915050565b60006113eb83836113c1565b9150826002028217905092915050565b61140482610e6a565b67ffffffffffffffff81111561141d5761141c610bc3565b5b611427825461121e565b61143282828561136e565b600060209050601f8311600181146114655760008415611453578287015190505b61145d85826113df565b8655506114c5565b601f1984166114738661124f565b60005b8281101561149b57848901518255600182019150602085019450602081019050611476565b868310156114b857848901516114b4601f8916826113c1565b8355505b6001600288020188555050505b505050505050565b7f4e487b7100000000000000000000000000000000000000000000000000000000600052601160045260246000fd5b600061150782610cee565b915061151283610cee565b925082820190508082111561152a576115296114cd565b5b92915050565b7f4f776e61626c653a206e6577206f776e657220697320746865207a65726f206160008201527f6464726573730000000000000000000000000000000000000000000000000000602082015250565b600061158c602683610e75565b915061159782611530565b604082019050919050565b600060208201905081810360008301526115bb8161157f565b9050919050565b7f4f776e61626c653a2063616c6c6572206973206e6f7420746865206f776e6572600082015250565b60006115f8602083610e75565b9150611603826115c2565b602082019050919050565b60006020820190508181036000830152611627816115eb565b905091905056fea2646970667358221220fb54e16eafa4590e934ecaf315636d8847e0e23fbb8f068c7428243a23b06a5764736f6c63430008110033",
  "immutableReferences": {},
  "source": "// SPDX-License-Identifier: MIT\npragma solidity ^0.8.0;\n\n\nimport \"@openzeppelin/contracts/access/Ownable.sol\";\n\ncontract Rentals is Ownable {\n\n  /// @notice Emitted when a new unit is added to the contract\n  uint public unitCount = 1; \n\n\n  struct Unit {\n    uint unitNumber;\n    string unitAddress;\n    string cid;\n    State state;\n    uint rent; \n    uint deposit;\n    uint area;\n    uint bhk;\n    uint bathrooms;\n    string reraNumber;\n    address payable landlord;\n    address payable tenant;\n  }\n  // struct UnitDetails {\n  //   uint area;\n    // uint bhk;\n    // uint bathrooms;\n  //   string preferredTenant;\n  // }\n\n  // <units mapping>\n  mapping (uint => Unit) public units;\n//mapping (uint => UnitDetails) public unitDetails;\n\n  // <enum State: Vacant, Occupied>\n  enum State { ForRent, Occupied}\n\n\n  /// @notice Emitted when a unit is added and listed of rent\n  /// @param unitNumber Unit Number requiring state change\n  event LogForRent(uint unitNumber);\n\n  /// @notice Emitted when a unit is added \n  event LogUnitAdded(uint unitNumber); \n\n  constructor()  {}\n\n  /// @notice Adds a unit under the ownership of a landlord \n  /// @param _unitAddress Address of the unit being listed\n  /// @dev The landlord adding the unit must be the owner of the contract \n  /// @dev The unit number is automatically assigned\n  function addUnit(\n    string memory _unitAddress, \n    string memory _cid,\n    uint _rent, \n    uint _deposit,\n    uint _area,\n    uint _bhk,\n    uint _bathrooms,\n    string memory _reraNumber\n    ) onlyOwner public  {\n   \n\n    units[unitCount] = Unit({\n     unitNumber: unitCount,\n     unitAddress: _unitAddress,\n     cid:_cid,\n     state: State.ForRent,\n     rent: _rent,\n     deposit: _deposit,\n     area:_area,\n     bhk:_bhk,\n     bathrooms:_bathrooms,\n     reraNumber:_reraNumber,\n     landlord: payable(msg.sender),\n     tenant: payable(address(0))\n    });\n    \n    emit LogUnitAdded(unitCount);\n    emit LogForRent(unitCount);\n    unitCount = unitCount + 1;\n  \n  }\n  //  function addUnitDetails(\n  //     uint _area,\n  //     uint _bhk,\n  //     uint _bathrooms,\n  //     string memory _preferredTenant\n  //   ) onlyOwner public {\n  //       unitDetails[unitCount]=UnitDetails({\n  //         area: _area,\n  //         bhk: _bhk,\n  //         bathrooms: _bathrooms,\n  //         preferredTenant: _preferredTenant\n  //       });\n  //   }\n  \n\n  /// @notice Allows landlord/tenant to fetch the details of a unit\n  /// @param _unitNumber The unit number to be fetched\n  function fetchUnit(uint _unitNumber) public view \n      returns (\n        uint unitNumber, \n        string memory unitAddress,\n        string memory cid,\n        uint state, \n        uint rent, \n        uint deposit,\n        uint area,\n        uint bhk,\n        uint bathrooms,\n        string memory reraNumber,\n        address landlord, \n        address tenant\n        )  \n    {\n      unitNumber = units[_unitNumber].unitNumber; \n      unitAddress =  units[_unitNumber].unitAddress;\n      cid = units[_unitNumber].cid;\n      state = uint(units[_unitNumber].state); \n      rent = units[_unitNumber].rent;\n      deposit = units[_unitNumber].deposit;\n      area=units[_unitNumber].area;\n      bhk = units[_unitNumber].bhk;\n      bathrooms = units[_unitNumber].bathrooms;\n      reraNumber= units[_unitNumber].reraNumber;\n      landlord = units[_unitNumber].landlord; \n      tenant = units[_unitNumber].tenant; \n      return (unitNumber, unitAddress ,cid, state,rent, deposit,area,bhk,bathrooms,reraNumber,landlord, tenant); \n    } \n  // function fetchUnitDetails(uint _unitNumber) public view\n  //     returns(\n  //         uint area,\n  //         uint bhk,\n  //         uint bathrooms,\n  //         string memory preferredTenant\n  //     )\n  //   {\n  //       area= unitDetails[_unitNumber].area;\n      // bhk = unitDetails[_unitNumber].bhk;\n      // bathrooms = unitDetails[_unitNumber].bathrooms;\n  //     preferredTenant = unitDetails[_unitNumber].preferredTenant;\n  //   }\n\n  \n}\n",
  "sourcePath": "/run/media/zen/B4D25817D257DBE4/yash/subms/sem7/project/module/housing_rental_dapp/contracts/Rentals.sol",
  "compiler": {
    "name": "solc",
    "version": "0.8.17+commit.8df45f5f.Emscripten.clang"
  },
  "schemaVersion": "3.4.11",
  "updatedAt": "2023-02-02T18:19:38.969Z",
  "networkType": "ethereum",
  "devdoc": {
    "events": {
      "LogForRent(uint256)": {
        "params": {
          "unitNumber": "Unit Number requiring state change"
        }
      }
    },
    "kind": "dev",
    "methods": {
      "addUnit(string,string,uint256,uint256,uint256,uint256,uint256,string)": {
        "details": "The landlord adding the unit must be the owner of the contract The unit number is automatically assigned",
        "params": {
          "_unitAddress": "Address of the unit being listed"
        }
      },
      "fetchUnit(uint256)": {
        "params": {
          "_unitNumber": "The unit number to be fetched"
        }
      },
      "owner()": {
        "details": "Returns the address of the current owner."
      },
      "renounceOwnership()": {
        "details": "Leaves the contract without owner. It will not be possible to call `onlyOwner` functions anymore. Can only be called by the current owner. NOTE: Renouncing ownership will leave the contract without an owner, thereby removing any functionality that is only available to the owner."
      },
      "transferOwnership(address)": {
        "details": "Transfers ownership of the contract to a new account (`newOwner`). Can only be called by the current owner."
      }
    },
    "version": 1
  },
  "userdoc": {
    "events": {
      "LogForRent(uint256)": {
        "notice": "Emitted when a unit is added and listed of rent"
      },
      "LogUnitAdded(uint256)": {
        "notice": "Emitted when a unit is added "
      }
    },
    "kind": "user",
    "methods": {
      "addUnit(string,string,uint256,uint256,uint256,uint256,uint256,string)": {
        "notice": "Adds a unit under the ownership of a landlord "
      },
      "fetchUnit(uint256)": {
        "notice": "Allows landlord/tenant to fetch the details of a unit"
      },
      "unitCount()": {
        "notice": "Emitted when a new unit is added to the contract"
      }
    },
    "version": 1
  }
}