{
  "contractName": "Rentals",
  "abi": [
    {
      "inputs": [],
      "stateMutability": "nonpayable",
      "type": "constructor"
    },
    {
      "anonymous": false,
      "inputs": [
        {
          "indexed": false,
          "internalType": "uint256",
          "name": "unitNumber",
          "type": "uint256"
        }
      ],
      "name": "LogForRent",
      "type": "event"
    },
    {
      "anonymous": false,
      "inputs": [
        {
          "indexed": false,
          "internalType": "uint256",
          "name": "unitNumber",
          "type": "uint256"
        }
      ],
      "name": "LogUnitAdded",
      "type": "event"
    },
    {
      "anonymous": false,
      "inputs": [
        {
          "indexed": true,
          "internalType": "address",
          "name": "previousOwner",
          "type": "address"
        },
        {
          "indexed": true,
          "internalType": "address",
          "name": "newOwner",
          "type": "address"
        }
      ],
      "name": "OwnershipTransferred",
      "type": "event"
    },
    {
      "inputs": [],
      "name": "owner",
      "outputs": [
        {
          "internalType": "address",
          "name": "",
          "type": "address"
        }
      ],
      "stateMutability": "view",
      "type": "function"
    },
    {
      "inputs": [],
      "name": "renounceOwnership",
      "outputs": [],
      "stateMutability": "nonpayable",
      "type": "function"
    },
    {
      "inputs": [
        {
          "internalType": "address",
          "name": "newOwner",
          "type": "address"
        }
      ],
      "name": "transferOwnership",
      "outputs": [],
      "stateMutability": "nonpayable",
      "type": "function"
    },
    {
      "inputs": [],
      "name": "unitCount",
      "outputs": [
        {
          "internalType": "uint256",
          "name": "",
          "type": "uint256"
        }
      ],
      "stateMutability": "view",
      "type": "function"
    },
    {
      "inputs": [
        {
          "internalType": "uint256",
          "name": "",
          "type": "uint256"
        }
      ],
      "name": "unitDetails",
      "outputs": [
        {
          "internalType": "uint256",
          "name": "area",
          "type": "uint256"
        },
        {
          "internalType": "uint256",
          "name": "bhk",
          "type": "uint256"
        },
        {
          "internalType": "uint256",
          "name": "bathrooms",
          "type": "uint256"
        },
        {
          "internalType": "string",
          "name": "preferredTenant",
          "type": "string"
        }
      ],
      "stateMutability": "view",
      "type": "function"
    },
    {
      "inputs": [
        {
          "internalType": "uint256",
          "name": "",
          "type": "uint256"
        }
      ],
      "name": "units",
      "outputs": [
        {
          "internalType": "uint256",
          "name": "unitNumber",
          "type": "uint256"
        },
        {
          "internalType": "string",
          "name": "unitAddress",
          "type": "string"
        },
        {
          "internalType": "string",
          "name": "cid",
          "type": "string"
        },
        {
          "internalType": "enum Rentals.State",
          "name": "state",
          "type": "uint8"
        },
        {
          "internalType": "uint256",
          "name": "rent",
          "type": "uint256"
        },
        {
          "internalType": "uint256",
          "name": "deposit",
          "type": "uint256"
        },
        {
          "internalType": "address payable",
          "name": "landlord",
          "type": "address"
        },
        {
          "internalType": "address payable",
          "name": "tenant",
          "type": "address"
        }
      ],
      "stateMutability": "view",
      "type": "function"
    },
    {
      "inputs": [
        {
          "internalType": "string",
          "name": "_unitAddress",
          "type": "string"
        },
        {
          "internalType": "string",
          "name": "_cid",
          "type": "string"
        },
        {
          "internalType": "uint256",
          "name": "_rent",
          "type": "uint256"
        },
        {
          "internalType": "uint256",
          "name": "_deposit",
          "type": "uint256"
        }
      ],
      "name": "addUnit",
      "outputs": [],
      "stateMutability": "nonpayable",
      "type": "function"
    },
    {
      "inputs": [
        {
          "internalType": "uint256",
          "name": "_area",
          "type": "uint256"
        },
        {
          "internalType": "uint256",
          "name": "_bhk",
          "type": "uint256"
        },
        {
          "internalType": "uint256",
          "name": "_bathrooms",
          "type": "uint256"
        },
        {
          "internalType": "string",
          "name": "_preferredTenant",
          "type": "string"
        }
      ],
      "name": "addUnitDetails",
      "outputs": [],
      "stateMutability": "nonpayable",
      "type": "function"
    },
    {
      "inputs": [
        {
          "internalType": "uint256",
          "name": "_unitNumber",
          "type": "uint256"
        }
      ],
      "name": "fetchUnit",
      "outputs": [
        {
          "internalType": "uint256",
          "name": "unitNumber",
          "type": "uint256"
        },
        {
          "internalType": "string",
          "name": "unitAddress",
          "type": "string"
        },
        {
          "internalType": "string",
          "name": "cid",
          "type": "string"
        },
        {
          "internalType": "uint256",
          "name": "state",
          "type": "uint256"
        },
        {
          "internalType": "uint256",
          "name": "rent",
          "type": "uint256"
        },
        {
          "internalType": "uint256",
          "name": "deposit",
          "type": "uint256"
        },
        {
          "internalType": "address",
          "name": "landlord",
          "type": "address"
        },
        {
          "internalType": "address",
          "name": "tenant",
          "type": "address"
        }
      ],
      "stateMutability": "view",
      "type": "function"
    },
    {
      "inputs": [
        {
          "internalType": "uint256",
          "name": "_unitNumber",
          "type": "uint256"
        }
      ],
      "name": "fetchUnitDetails",
      "outputs": [
        {
          "internalType": "uint256",
          "name": "area",
          "type": "uint256"
        },
        {
          "internalType": "uint256",
          "name": "bhk",
          "type": "uint256"
        },
        {
          "internalType": "uint256",
          "name": "bathrooms",
          "type": "uint256"
        },
        {
          "internalType": "string",
          "name": "preferredTenant",
          "type": "string"
        }
      ],
      "stateMutability": "view",
      "type": "function"
    }
  ],
  "bytecode": "0x60806040526001805534801561001457600080fd5b5061003161002661003660201b60201c565b61003e60201b60201c565b610102565b600033905090565b60008060009054906101000a900473ffffffffffffffffffffffffffffffffffffffff169050816000806101000a81548173ffffffffffffffffffffffffffffffffffffffff021916908373ffffffffffffffffffffffffffffffffffffffff1602179055508173ffffffffffffffffffffffffffffffffffffffff168173ffffffffffffffffffffffffffffffffffffffff167f8be0079c531659141344cd1fd0a4f28419497f9722a3daafe3b4186f6b6457e060405160405180910390a35050565b611583806101116000396000f3fe608060405234801561001057600080fd5b506004361061009e5760003560e01c80639b5db2a8116100665780639b5db2a81461013a578063e5fba6cc1461016d578063f2fde38b146101a4578063f584fbf6146101c0578063fef83038146101de5761009e565b80636a897e31146100a3578063715018a6146100bf5780638b7b0537146100c95780638da5cb5b1461010057806390949c1c1461011e575b600080fd5b6100bd60048036038101906100b89190610f14565b610211565b005b6100c7610293565b005b6100e360048036038101906100de9190610eeb565b6102a7565b6040516100f79897969594939291906111ac565b60405180910390f35b61010861051c565b60405161011591906110aa565b60405180910390f35b61013860048036038101906101339190610e58565b610545565b005b610154600480360381019061014f9190610eeb565b6107cf565b6040516101649493929190611238565b60405180910390f35b61018760048036038101906101829190610eeb565b610887565b60405161019b989796959493929190611120565b60405180910390f35b6101be60048036038101906101b99190610e2f565b610a2c565b005b6101c8610ab0565b6040516101d59190611105565b60405180910390f35b6101f860048036038101906101f39190610eeb565b610ab6565b6040516102089493929190611238565b60405180910390f35b610219610bb0565b6040518060800160405280858152602001848152602001838152602001828152506003600060015481526020019081526020016000206000820151816000015560208201518160010155604082015181600201556060820151816003019080519060200190610289929190610cfa565b5090505050505050565b61029b610bb0565b6102a56000610c2e565b565b60006060806000806000806000600260008a8152602001908152602001600020600001549750600260008a815260200190815260200160002060010180546102ee9061140c565b80601f016020809104026020016040519081016040528092919081815260200182805461031a9061140c565b80156103675780601f1061033c57610100808354040283529160200191610367565b820191906000526020600020905b81548152906001019060200180831161034a57829003601f168201915b50505050509650600260008a8152602001908152602001600020600201805461038f9061140c565b80601f01602080910402602001604051908101604052809291908181526020018280546103bb9061140c565b80156104085780601f106103dd57610100808354040283529160200191610408565b820191906000526020600020905b8154815290600101906020018083116103eb57829003601f168201915b50505050509550600260008a815260200190815260200160002060030160009054906101000a900460ff16600181111561046b577f4e487b7100000000000000000000000000000000000000000000000000000000600052602160045260246000fd5b9450600260008a8152602001908152602001600020600401549350600260008a8152602001908152602001600020600501549250600260008a815260200190815260200160002060060160009054906101000a900473ffffffffffffffffffffffffffffffffffffffff169150600260008a815260200190815260200160002060070160009054906101000a900473ffffffffffffffffffffffffffffffffffffffff169050919395975091939597565b60008060009054906101000a900473ffffffffffffffffffffffffffffffffffffffff16905090565b61054d610bb0565b6040518061010001604052806001548152602001858152602001848152602001600060018111156105a7577f4e487b7100000000000000000000000000000000000000000000000000000000600052602160045260246000fd5b81526020018381526020018281526020013373ffffffffffffffffffffffffffffffffffffffff168152602001600073ffffffffffffffffffffffffffffffffffffffff1681525060026000600154815260200190815260200160002060008201518160000155602082015181600101908051906020019061062a929190610cfa565b506040820151816002019080519060200190610647929190610cfa565b5060608201518160030160006101000a81548160ff02191690836001811115610699577f4e487b7100000000000000000000000000000000000000000000000000000000600052602160045260246000fd5b02179055506080820151816004015560a0820151816005015560c08201518160060160006101000a81548173ffffffffffffffffffffffffffffffffffffffff021916908373ffffffffffffffffffffffffffffffffffffffff16021790555060e08201518160070160006101000a81548173ffffffffffffffffffffffffffffffffffffffff021916908373ffffffffffffffffffffffffffffffffffffffff1602179055509050507f9f766be9553a6f64c84baf47414111171633afad6f2ad2d04e59c7f30a92b9b06001546040516107749190611105565b60405180910390a17faff779a2b0f7d6ac7566ca9920c1a4cf550c9691db23499a78d4eac3875b76b26001546040516107ad9190611105565b60405180910390a1600180546107c39190611301565b60018190555050505050565b60036020528060005260406000206000915090508060000154908060010154908060020154908060030180546108049061140c565b80601f01602080910402602001604051908101604052809291908181526020018280546108309061140c565b801561087d5780601f106108525761010080835404028352916020019161087d565b820191906000526020600020905b81548152906001019060200180831161086057829003601f168201915b5050505050905084565b60026020528060005260406000206000915090508060000154908060010180546108b09061140c565b80601f01602080910402602001604051908101604052809291908181526020018280546108dc9061140c565b80156109295780601f106108fe57610100808354040283529160200191610929565b820191906000526020600020905b81548152906001019060200180831161090c57829003601f168201915b50505050509080600201805461093e9061140c565b80601f016020809104026020016040519081016040528092919081815260200182805461096a9061140c565b80156109b75780601f1061098c576101008083540402835291602001916109b7565b820191906000526020600020905b81548152906001019060200180831161099a57829003601f168201915b5050505050908060030160009054906101000a900460ff16908060040154908060050154908060060160009054906101000a900473ffffffffffffffffffffffffffffffffffffffff16908060070160009054906101000a900473ffffffffffffffffffffffffffffffffffffffff16905088565b610a34610bb0565b600073ffffffffffffffffffffffffffffffffffffffff168173ffffffffffffffffffffffffffffffffffffffff161415610aa4576040517f08c379a0000000000000000000000000000000000000000000000000000000008152600401610a9b906110c5565b60405180910390fd5b610aad81610c2e565b50565b60015481565b60008060006060600360008681526020019081526020016000206000015493506003600086815260200190815260200160002060010154925060036000868152602001908152602001600020600201549150600360008681526020019081526020016000206003018054610b299061140c565b80601f0160208091040260200160405190810160405280929190818152602001828054610b559061140c565b8015610ba25780601f10610b7757610100808354040283529160200191610ba2565b820191906000526020600020905b815481529060010190602001808311610b8557829003601f168201915b505050505090509193509193565b610bb8610cf2565b73ffffffffffffffffffffffffffffffffffffffff16610bd661051c565b73ffffffffffffffffffffffffffffffffffffffff1614610c2c576040517f08c379a0000000000000000000000000000000000000000000000000000000008152600401610c23906110e5565b60405180910390fd5b565b60008060009054906101000a900473ffffffffffffffffffffffffffffffffffffffff169050816000806101000a81548173ffffffffffffffffffffffffffffffffffffffff021916908373ffffffffffffffffffffffffffffffffffffffff1602179055508173ffffffffffffffffffffffffffffffffffffffff168173ffffffffffffffffffffffffffffffffffffffff167f8be0079c531659141344cd1fd0a4f28419497f9722a3daafe3b4186f6b6457e060405160405180910390a35050565b600033905090565b828054610d069061140c565b90600052602060002090601f016020900481019282610d285760008555610d6f565b82601f10610d4157805160ff1916838001178555610d6f565b82800160010185558215610d6f579182015b82811115610d6e578251825591602001919060010190610d53565b5b509050610d7c9190610d80565b5090565b5b80821115610d99576000816000905550600101610d81565b5090565b6000610db0610dab846112b5565b611284565b905082815260208101848484011115610dc857600080fd5b610dd38482856113ca565b509392505050565b600081359050610dea8161151f565b92915050565b600082601f830112610e0157600080fd5b8135610e11848260208601610d9d565b91505092915050565b600081359050610e2981611536565b92915050565b600060208284031215610e4157600080fd5b6000610e4f84828501610ddb565b91505092915050565b60008060008060808587031215610e6e57600080fd5b600085013567ffffffffffffffff811115610e8857600080fd5b610e9487828801610df0565b945050602085013567ffffffffffffffff811115610eb157600080fd5b610ebd87828801610df0565b9350506040610ece87828801610e1a565b9250506060610edf87828801610e1a565b91505092959194509250565b600060208284031215610efd57600080fd5b6000610f0b84828501610e1a565b91505092915050565b60008060008060808587031215610f2a57600080fd5b6000610f3887828801610e1a565b9450506020610f4987828801610e1a565b9350506040610f5a87828801610e1a565b925050606085013567ffffffffffffffff811115610f7757600080fd5b610f8387828801610df0565b91505092959194509250565b610f9881611369565b82525050565b610fa781611357565b82525050565b610fb6816113b8565b82525050565b6000610fc7826112e5565b610fd181856112f0565b9350610fe18185602086016113d9565b610fea816114fa565b840191505092915050565b60006110026026836112f0565b91507f4f776e61626c653a206e6577206f776e657220697320746865207a65726f206160008301527f64647265737300000000000000000000000000000000000000000000000000006020830152604082019050919050565b60006110686020836112f0565b91507f4f776e61626c653a2063616c6c6572206973206e6f7420746865206f776e65726000830152602082019050919050565b6110a4816113ae565b82525050565b60006020820190506110bf6000830184610f9e565b92915050565b600060208201905081810360008301526110de81610ff5565b9050919050565b600060208201905081810360008301526110fe8161105b565b9050919050565b600060208201905061111a600083018461109b565b92915050565b600061010082019050611136600083018b61109b565b8181036020830152611148818a610fbc565b9050818103604083015261115c8189610fbc565b905061116b6060830188610fad565b611178608083018761109b565b61118560a083018661109b565b61119260c0830185610f8f565b61119f60e0830184610f8f565b9998505050505050505050565b6000610100820190506111c2600083018b61109b565b81810360208301526111d4818a610fbc565b905081810360408301526111e88189610fbc565b90506111f7606083018861109b565b611204608083018761109b565b61121160a083018661109b565b61121e60c0830185610f9e565b61122b60e0830184610f9e565b9998505050505050505050565b600060808201905061124d600083018761109b565b61125a602083018661109b565b611267604083018561109b565b81810360608301526112798184610fbc565b905095945050505050565b6000604051905081810181811067ffffffffffffffff821117156112ab576112aa6114cb565b5b8060405250919050565b600067ffffffffffffffff8211156112d0576112cf6114cb565b5b601f19601f8301169050602081019050919050565b600081519050919050565b600082825260208201905092915050565b600061130c826113ae565b9150611317836113ae565b9250827fffffffffffffffffffffffffffffffffffffffffffffffffffffffffffffffff0382111561134c5761134b61143e565b5b828201905092915050565b60006113628261138e565b9050919050565b60006113748261138e565b9050919050565b60008190506113898261150b565b919050565b600073ffffffffffffffffffffffffffffffffffffffff82169050919050565b6000819050919050565b60006113c38261137b565b9050919050565b82818337600083830152505050565b60005b838110156113f75780820151818401526020810190506113dc565b83811115611406576000848401525b50505050565b6000600282049050600182168061142457607f821691505b602082108114156114385761143761149c565b5b50919050565b7f4e487b7100000000000000000000000000000000000000000000000000000000600052601160045260246000fd5b7f4e487b7100000000000000000000000000000000000000000000000000000000600052602160045260246000fd5b7f4e487b7100000000000000000000000000000000000000000000000000000000600052602260045260246000fd5b7f4e487b7100000000000000000000000000000000000000000000000000000000600052604160045260246000fd5b6000601f19601f8301169050919050565b6002811061151c5761151b61146d565b5b50565b61152881611357565b811461153357600080fd5b50565b61153f816113ae565b811461154a57600080fd5b5056fea2646970667358221220e31cf08236833d056cb60b8e2feed1d14c1a542a50cc01a3e9dc31f9a0df235a64736f6c63430008000033",
  "immutableReferences": {},
  "source": "// SPDX-License-Identifier: MIT\r\npragma solidity ^0.8.0;\r\n\r\n\r\nimport \"@openzeppelin/contracts/access/Ownable.sol\";\r\n\r\ncontract Rentals is Ownable {\r\n\r\n  /// @notice Emitted when a new unit is added to the contract\r\n  uint public unitCount = 1; \r\n\r\n\r\n  struct Unit {\r\n    uint unitNumber;\r\n    string unitAddress;\r\n    string cid;\r\n    State state;\r\n    uint rent; \r\n    uint deposit;\r\n    address payable landlord;\r\n    address payable tenant;\r\n  }\r\n  struct UnitDetails {\r\n    uint area;\r\n    uint bhk;\r\n    uint bathrooms;\r\n    string preferredTenant;\r\n  }\r\n\r\n  // <units mapping>\r\n  mapping (uint => Unit) public units;\r\nmapping (uint => UnitDetails) public unitDetails;\r\n\r\n  // <enum State: Vacant, Occupied>\r\n  enum State { ForRent, Occupied}\r\n\r\n\r\n  /// @notice Emitted when a unit is added and listed of rent\r\n  /// @param unitNumber Unit Number requiring state change\r\n  event LogForRent(uint unitNumber);\r\n\r\n  /// @notice Emitted when a unit is added \r\n  event LogUnitAdded(uint unitNumber); \r\n\r\n  constructor()  {}\r\n\r\n  /// @notice Adds a unit under the ownership of a landlord \r\n  /// @param _unitAddress Address of the unit being listed\r\n  /// @dev The landlord adding the unit must be the owner of the contract \r\n  /// @dev The unit number is automatically assigned\r\n  function addUnit(\r\n    string memory _unitAddress, \r\n    string memory _cid,\r\n    uint _rent, \r\n    uint _deposit\r\n    ) onlyOwner public  {\r\n   \r\n\r\n    units[unitCount] = Unit({\r\n     unitNumber: unitCount,\r\n     unitAddress: _unitAddress,\r\n     cid:_cid,\r\n     state: State.ForRent,\r\n     rent: _rent,\r\n     deposit: _deposit,\r\n     landlord: payable(msg.sender),\r\n     tenant: payable(address(0))\r\n    });\r\n    \r\n    emit LogUnitAdded(unitCount);\r\n    emit LogForRent(unitCount);\r\n    unitCount = unitCount + 1;\r\n  \r\n  }\r\n   function addUnitDetails(\r\n      uint _area,\r\n      uint _bhk,\r\n      uint _bathrooms,\r\n      string memory _preferredTenant\r\n    ) onlyOwner public {\r\n        unitDetails[unitCount]=UnitDetails({\r\n          area: _area,\r\n          bhk: _bhk,\r\n          bathrooms: _bathrooms,\r\n          preferredTenant: _preferredTenant\r\n        });\r\n    }\r\n  \r\n\r\n  /// @notice Allows landlord/tenant to fetch the details of a unit\r\n  /// @param _unitNumber The unit number to be fetched\r\n  function fetchUnit(uint _unitNumber) public view \r\n      returns (\r\n        uint unitNumber, \r\n        string memory unitAddress,\r\n        string memory cid,\r\n        uint state, \r\n        uint rent, \r\n        uint deposit,\r\n        address landlord, \r\n        address tenant\r\n        )  \r\n    {\r\n      unitNumber = units[_unitNumber].unitNumber; \r\n      unitAddress =  units[_unitNumber].unitAddress;\r\n      cid = units[_unitNumber].cid;\r\n      state = uint(units[_unitNumber].state); \r\n      rent = units[_unitNumber].rent;\r\n      deposit = units[_unitNumber].deposit;\r\n      landlord = units[_unitNumber].landlord; \r\n      tenant = units[_unitNumber].tenant; \r\n      return (unitNumber, unitAddress ,cid, state,rent, deposit,landlord, tenant); \r\n    } \r\n  function fetchUnitDetails(uint _unitNumber) public view\r\n      returns(\r\n          uint area,\r\n          uint bhk,\r\n          uint bathrooms,\r\n          string memory preferredTenant\r\n      )\r\n    {\r\n        area= unitDetails[_unitNumber].area;\r\n      bhk = unitDetails[_unitNumber].bhk;\r\n      bathrooms = unitDetails[_unitNumber].bathrooms;\r\n      preferredTenant = unitDetails[_unitNumber].preferredTenant;\r\n    }\r\n\r\n  \r\n}\r\n",
  "sourcePath": "C:\\Users\\Kunal\\Desktop\\rental_dapp\\contracts\\Rentals.sol",
  "compiler": {
    "name": "solc",
    "version": "0.8.0+commit.c7dfd78e.Emscripten.clang"
  },
  "schemaVersion": "3.4.11",
  "updatedAt": "2022-12-14T14:25:35.735Z",
  "devdoc": {
    "events": {
      "LogForRent(uint256)": {
        "params": {
          "unitNumber": "Unit Number requiring state change"
        }
      }
    },
    "kind": "dev",
    "methods": {
      "addUnit(string,string,uint256,uint256)": {
        "details": "The landlord adding the unit must be the owner of the contract The unit number is automatically assigned",
        "params": {
          "_unitAddress": "Address of the unit being listed"
        }
      },
      "fetchUnit(uint256)": {
        "params": {
          "_unitNumber": "The unit number to be fetched"
        }
      },
      "owner()": {
        "details": "Returns the address of the current owner."
      },
      "renounceOwnership()": {
        "details": "Leaves the contract without owner. It will not be possible to call `onlyOwner` functions anymore. Can only be called by the current owner. NOTE: Renouncing ownership will leave the contract without an owner, thereby removing any functionality that is only available to the owner."
      },
      "transferOwnership(address)": {
        "details": "Transfers ownership of the contract to a new account (`newOwner`). Can only be called by the current owner."
      }
    },
    "version": 1
  },
  "userdoc": {
    "events": {
      "LogForRent(uint256)": {
        "notice": "Emitted when a unit is added and listed of rent"
      },
      "LogUnitAdded(uint256)": {
        "notice": "Emitted when a unit is added "
      }
    },
    "kind": "user",
    "methods": {
      "addUnit(string,string,uint256,uint256)": {
        "notice": "Adds a unit under the ownership of a landlord "
      },
      "fetchUnit(uint256)": {
        "notice": "Allows landlord/tenant to fetch the details of a unit"
      },
      "unitCount()": {
        "notice": "Emitted when a new unit is added to the contract"
      }
    },
    "version": 1
  }
}