{
  "contractName": "Rentals",
  "abi": [
    {
      "inputs": [],
      "stateMutability": "nonpayable",
      "type": "constructor"
    },
    {
      "anonymous": false,
      "inputs": [
        {
          "indexed": false,
          "internalType": "uint256",
          "name": "unitNumber",
          "type": "uint256"
        }
      ],
      "name": "LogForRent",
      "type": "event"
    },
    {
      "anonymous": false,
      "inputs": [
        {
          "indexed": false,
          "internalType": "uint256",
          "name": "unitNumber",
          "type": "uint256"
        }
      ],
      "name": "LogUnitAdded",
      "type": "event"
    },
    {
      "anonymous": false,
      "inputs": [
        {
          "indexed": true,
          "internalType": "address",
          "name": "previousOwner",
          "type": "address"
        },
        {
          "indexed": true,
          "internalType": "address",
          "name": "newOwner",
          "type": "address"
        }
      ],
      "name": "OwnershipTransferred",
      "type": "event"
    },
    {
      "inputs": [],
      "name": "owner",
      "outputs": [
        {
          "internalType": "address",
          "name": "",
          "type": "address"
        }
      ],
      "stateMutability": "view",
      "type": "function",
      "constant": true
    },
    {
      "inputs": [],
      "name": "renounceOwnership",
      "outputs": [],
      "stateMutability": "nonpayable",
      "type": "function"
    },
    {
      "inputs": [
        {
          "internalType": "address",
          "name": "newOwner",
          "type": "address"
        }
      ],
      "name": "transferOwnership",
      "outputs": [],
      "stateMutability": "nonpayable",
      "type": "function"
    },
    {
      "inputs": [],
      "name": "unitCount",
      "outputs": [
        {
          "internalType": "uint256",
          "name": "",
          "type": "uint256"
        }
      ],
      "stateMutability": "view",
      "type": "function",
      "constant": true
    },
    {
      "inputs": [
        {
          "internalType": "uint256",
          "name": "",
          "type": "uint256"
        }
      ],
      "name": "units",
      "outputs": [
        {
          "internalType": "uint256",
          "name": "unitNumber",
          "type": "uint256"
        },
        {
          "internalType": "string",
          "name": "unitAddress",
          "type": "string"
        },
        {
          "internalType": "string",
          "name": "cid",
          "type": "string"
        },
        {
          "internalType": "enum Rentals.State",
          "name": "state",
          "type": "uint8"
        },
        {
          "internalType": "uint256",
          "name": "rent",
          "type": "uint256"
        },
        {
          "internalType": "uint256",
          "name": "term",
          "type": "uint256"
        },
        {
          "internalType": "string",
          "name": "startDate",
          "type": "string"
        },
        {
          "internalType": "uint256",
          "name": "deposit",
          "type": "uint256"
        },
        {
          "internalType": "address payable",
          "name": "landlord",
          "type": "address"
        },
        {
          "internalType": "address payable",
          "name": "tenant",
          "type": "address"
        }
      ],
      "stateMutability": "view",
      "type": "function",
      "constant": true
    },
    {
      "inputs": [
        {
          "internalType": "string",
          "name": "_unitAddress",
          "type": "string"
        },
        {
          "internalType": "string",
          "name": "_cid",
          "type": "string"
        },
        {
          "internalType": "uint256",
          "name": "_rent",
          "type": "uint256"
        },
        {
          "internalType": "uint256",
          "name": "_deposit",
          "type": "uint256"
        },
        {
          "internalType": "uint256",
          "name": "_term",
          "type": "uint256"
        },
        {
          "internalType": "string",
          "name": "_startDate",
          "type": "string"
        }
      ],
      "name": "addUnit",
      "outputs": [],
      "stateMutability": "nonpayable",
      "type": "function"
    },
    {
      "inputs": [
        {
          "internalType": "uint256",
          "name": "_unitNumber",
          "type": "uint256"
        }
      ],
      "name": "fetchUnit",
      "outputs": [
        {
          "internalType": "uint256",
          "name": "unitNumber",
          "type": "uint256"
        },
        {
          "internalType": "string",
          "name": "unitAddress",
          "type": "string"
        },
        {
          "internalType": "string",
          "name": "cid",
          "type": "string"
        },
        {
          "internalType": "uint256",
          "name": "state",
          "type": "uint256"
        },
        {
          "internalType": "uint256",
          "name": "rent",
          "type": "uint256"
        },
        {
          "internalType": "uint256",
          "name": "deposit",
          "type": "uint256"
        },
        {
          "internalType": "uint256",
          "name": "term",
          "type": "uint256"
        },
        {
          "internalType": "string",
          "name": "startDate",
          "type": "string"
        },
        {
          "internalType": "address",
          "name": "landlord",
          "type": "address"
        },
        {
          "internalType": "address",
          "name": "tenant",
          "type": "address"
        }
      ],
      "stateMutability": "view",
      "type": "function",
      "constant": true
    }
  ],
  "bytecode": "0x60806040526001805534801561001457600080fd5b5061003161002661003660201b60201c565b61003e60201b60201c565b610102565b600033905090565b60008060009054906101000a900473ffffffffffffffffffffffffffffffffffffffff169050816000806101000a81548173ffffffffffffffffffffffffffffffffffffffff021916908373ffffffffffffffffffffffffffffffffffffffff1602179055508173ffffffffffffffffffffffffffffffffffffffff168173ffffffffffffffffffffffffffffffffffffffff167f8be0079c531659141344cd1fd0a4f28419497f9722a3daafe3b4186f6b6457e060405160405180910390a35050565b6113fb806101116000396000f3fe608060405234801561001057600080fd5b506004361061007d5760003560e01c80638da5cb5b1161005b5780638da5cb5b146100e1578063e5fba6cc146100ff578063f2fde38b14610138578063f584fbf6146101545761007d565b80630dca834c14610082578063715018a61461009e5780638b7b0537146100a8575b600080fd5b61009c60048036038101906100979190610d0f565b610172565b005b6100a6610433565b005b6100c260048036038101906100bd9190610de0565b610447565b6040516100d89a9998979695949392919061104b565b60405180910390f35b6100e961077b565b6040516100f69190610f24565b60405180910390f35b61011960048036038101906101149190610de0565b6107a4565b60405161012f9a99989796959493929190610f9a565b60405180910390f35b610152600480360381019061014d9190610ce6565b6109dd565b005b61015c610a61565b6040516101699190610f7f565b60405180910390f35b61017a610a67565b6040518061014001604052806001548152602001878152602001868152602001600060018111156101d4577f4e487b7100000000000000000000000000000000000000000000000000000000600052602160045260246000fd5b81526020018581526020018381526020018281526020018481526020013373ffffffffffffffffffffffffffffffffffffffff168152602001600073ffffffffffffffffffffffffffffffffffffffff16815250600260006001548152602001908152602001600020600082015181600001556020820151816001019080519060200190610263929190610bb1565b506040820151816002019080519060200190610280929190610bb1565b5060608201518160030160006101000a81548160ff021916908360018111156102d2577f4e487b7100000000000000000000000000000000000000000000000000000000600052602160045260246000fd5b02179055506080820151816004015560a0820151816005015560c0820151816006019080519060200190610307929190610bb1565b5060e082015181600701556101008201518160080160006101000a81548173ffffffffffffffffffffffffffffffffffffffff021916908373ffffffffffffffffffffffffffffffffffffffff1602179055506101208201518160090160006101000a81548173ffffffffffffffffffffffffffffffffffffffff021916908373ffffffffffffffffffffffffffffffffffffffff1602179055509050507f9f766be9553a6f64c84baf47414111171633afad6f2ad2d04e59c7f30a92b9b06001546040516103d69190610f7f565b60405180910390a17faff779a2b0f7d6ac7566ca9920c1a4cf550c9691db23499a78d4eac3875b76b260015460405161040f9190610f7f565b60405180910390a1600180546104259190611179565b600181905550505050505050565b61043b610a67565b6104456000610ae5565b565b60006060806000806000806060600080600260008c8152602001908152602001600020600001549950600260008c8152602001908152602001600020600101805461049190611284565b80601f01602080910402602001604051908101604052809291908181526020018280546104bd90611284565b801561050a5780601f106104df5761010080835404028352916020019161050a565b820191906000526020600020905b8154815290600101906020018083116104ed57829003601f168201915b50505050509850600260008c8152602001908152602001600020600201805461053290611284565b80601f016020809104026020016040519081016040528092919081815260200182805461055e90611284565b80156105ab5780601f10610580576101008083540402835291602001916105ab565b820191906000526020600020905b81548152906001019060200180831161058e57829003601f168201915b50505050509750600260008c815260200190815260200160002060030160009054906101000a900460ff16600181111561060e577f4e487b7100000000000000000000000000000000000000000000000000000000600052602160045260246000fd5b9650600260008c8152602001908152602001600020600401549550600260008c8152602001908152602001600020600701549450600260008c8152602001908152602001600020600501549350600260008c8152602001908152602001600020600601805461067c90611284565b80601f01602080910402602001604051908101604052809291908181526020018280546106a890611284565b80156106f55780601f106106ca576101008083540402835291602001916106f5565b820191906000526020600020905b8154815290600101906020018083116106d857829003601f168201915b50505050509250600260008c815260200190815260200160002060080160009054906101000a900473ffffffffffffffffffffffffffffffffffffffff169150600260008c815260200190815260200160002060090160009054906101000a900473ffffffffffffffffffffffffffffffffffffffff1690509193959799509193959799565b60008060009054906101000a900473ffffffffffffffffffffffffffffffffffffffff16905090565b60026020528060005260406000206000915090508060000154908060010180546107cd90611284565b80601f01602080910402602001604051908101604052809291908181526020018280546107f990611284565b80156108465780601f1061081b57610100808354040283529160200191610846565b820191906000526020600020905b81548152906001019060200180831161082957829003601f168201915b50505050509080600201805461085b90611284565b80601f016020809104026020016040519081016040528092919081815260200182805461088790611284565b80156108d45780601f106108a9576101008083540402835291602001916108d4565b820191906000526020600020905b8154815290600101906020018083116108b757829003601f168201915b5050505050908060030160009054906101000a900460ff169080600401549080600501549080600601805461090890611284565b80601f016020809104026020016040519081016040528092919081815260200182805461093490611284565b80156109815780601f1061095657610100808354040283529160200191610981565b820191906000526020600020905b81548152906001019060200180831161096457829003601f168201915b5050505050908060070154908060080160009054906101000a900473ffffffffffffffffffffffffffffffffffffffff16908060090160009054906101000a900473ffffffffffffffffffffffffffffffffffffffff1690508a565b6109e5610a67565b600073ffffffffffffffffffffffffffffffffffffffff168173ffffffffffffffffffffffffffffffffffffffff161415610a55576040517f08c379a0000000000000000000000000000000000000000000000000000000008152600401610a4c90610f3f565b60405180910390fd5b610a5e81610ae5565b50565b60015481565b610a6f610ba9565b73ffffffffffffffffffffffffffffffffffffffff16610a8d61077b565b73ffffffffffffffffffffffffffffffffffffffff1614610ae3576040517f08c379a0000000000000000000000000000000000000000000000000000000008152600401610ada90610f5f565b60405180910390fd5b565b60008060009054906101000a900473ffffffffffffffffffffffffffffffffffffffff169050816000806101000a81548173ffffffffffffffffffffffffffffffffffffffff021916908373ffffffffffffffffffffffffffffffffffffffff1602179055508173ffffffffffffffffffffffffffffffffffffffff168173ffffffffffffffffffffffffffffffffffffffff167f8be0079c531659141344cd1fd0a4f28419497f9722a3daafe3b4186f6b6457e060405160405180910390a35050565b600033905090565b828054610bbd90611284565b90600052602060002090601f016020900481019282610bdf5760008555610c26565b82601f10610bf857805160ff1916838001178555610c26565b82800160010185558215610c26579182015b82811115610c25578251825591602001919060010190610c0a565b5b509050610c339190610c37565b5090565b5b80821115610c50576000816000905550600101610c38565b5090565b6000610c67610c628461112d565b6110fc565b905082815260208101848484011115610c7f57600080fd5b610c8a848285611242565b509392505050565b600081359050610ca181611397565b92915050565b600082601f830112610cb857600080fd5b8135610cc8848260208601610c54565b91505092915050565b600081359050610ce0816113ae565b92915050565b600060208284031215610cf857600080fd5b6000610d0684828501610c92565b91505092915050565b60008060008060008060c08789031215610d2857600080fd5b600087013567ffffffffffffffff811115610d4257600080fd5b610d4e89828a01610ca7565b965050602087013567ffffffffffffffff811115610d6b57600080fd5b610d7789828a01610ca7565b9550506040610d8889828a01610cd1565b9450506060610d9989828a01610cd1565b9350506080610daa89828a01610cd1565b92505060a087013567ffffffffffffffff811115610dc757600080fd5b610dd389828a01610ca7565b9150509295509295509295565b600060208284031215610df257600080fd5b6000610e0084828501610cd1565b91505092915050565b610e12816111e1565b82525050565b610e21816111cf565b82525050565b610e3081611230565b82525050565b6000610e418261115d565b610e4b8185611168565b9350610e5b818560208601611251565b610e6481611372565b840191505092915050565b6000610e7c602683611168565b91507f4f776e61626c653a206e6577206f776e657220697320746865207a65726f206160008301527f64647265737300000000000000000000000000000000000000000000000000006020830152604082019050919050565b6000610ee2602083611168565b91507f4f776e61626c653a2063616c6c6572206973206e6f7420746865206f776e65726000830152602082019050919050565b610f1e81611226565b82525050565b6000602082019050610f396000830184610e18565b92915050565b60006020820190508181036000830152610f5881610e6f565b9050919050565b60006020820190508181036000830152610f7881610ed5565b9050919050565b6000602082019050610f946000830184610f15565b92915050565b600061014082019050610fb0600083018d610f15565b8181036020830152610fc2818c610e36565b90508181036040830152610fd6818b610e36565b9050610fe5606083018a610e27565b610ff26080830189610f15565b610fff60a0830188610f15565b81810360c08301526110118187610e36565b905061102060e0830186610f15565b61102e610100830185610e09565b61103c610120830184610e09565b9b9a5050505050505050505050565b600061014082019050611061600083018d610f15565b8181036020830152611073818c610e36565b90508181036040830152611087818b610e36565b9050611096606083018a610f15565b6110a36080830189610f15565b6110b060a0830188610f15565b6110bd60c0830187610f15565b81810360e08301526110cf8186610e36565b90506110df610100830185610e18565b6110ed610120830184610e18565b9b9a5050505050505050505050565b6000604051905081810181811067ffffffffffffffff8211171561112357611122611343565b5b8060405250919050565b600067ffffffffffffffff82111561114857611147611343565b5b601f19601f8301169050602081019050919050565b600081519050919050565b600082825260208201905092915050565b600061118482611226565b915061118f83611226565b9250827fffffffffffffffffffffffffffffffffffffffffffffffffffffffffffffffff038211156111c4576111c36112b6565b5b828201905092915050565b60006111da82611206565b9050919050565b60006111ec82611206565b9050919050565b600081905061120182611383565b919050565b600073ffffffffffffffffffffffffffffffffffffffff82169050919050565b6000819050919050565b600061123b826111f3565b9050919050565b82818337600083830152505050565b60005b8381101561126f578082015181840152602081019050611254565b8381111561127e576000848401525b50505050565b6000600282049050600182168061129c57607f821691505b602082108114156112b0576112af611314565b5b50919050565b7f4e487b7100000000000000000000000000000000000000000000000000000000600052601160045260246000fd5b7f4e487b7100000000000000000000000000000000000000000000000000000000600052602160045260246000fd5b7f4e487b7100000000000000000000000000000000000000000000000000000000600052602260045260246000fd5b7f4e487b7100000000000000000000000000000000000000000000000000000000600052604160045260246000fd5b6000601f19601f8301169050919050565b60028110611394576113936112e5565b5b50565b6113a0816111cf565b81146113ab57600080fd5b50565b6113b781611226565b81146113c257600080fd5b5056fea26469706673582212200fcd3cd76204723f372d529af9925d346aa6f0f6d7da7d2197b50d24f3d09bd264736f6c63430008000033",
  "immutableReferences": {},
  "source": "// SPDX-License-Identifier: MIT\r\npragma solidity ^0.8.0;\r\n\r\n/// @title A decentralized real estate app\r\n/// @author MBowey\r\n/// @notice Landlords can use this contract to lease rental units \r\n/// @dev All function calls are currently implemented without side effects\r\n\r\n\r\nimport \"@openzeppelin/contracts/access/Ownable.sol\";\r\n\r\ncontract Rentals is Ownable {\r\n\r\n  /// @notice Emitted when a new unit is added to the contract\r\n  uint public unitCount = 1; \r\n\r\n\r\n  struct Unit {\r\n    uint unitNumber;\r\n    string unitAddress;\r\n    string cid;\r\n    State state;\r\n    uint rent; \r\n    uint term;\r\n    string startDate;\r\n    uint deposit;\r\n    address payable landlord;\r\n    address payable tenant;\r\n  }\r\n\r\n\r\n  // <units mapping>\r\n  mapping (uint => Unit) public units;\r\n\r\n\r\n  // <enum State: Vacant, Occupied>\r\n  enum State { ForRent, Occupied}\r\n\r\n\r\n  /// @notice Emitted when a unit is added and listed of rent\r\n  /// @param unitNumber Unit Number requiring state change\r\n  event LogForRent(uint unitNumber);\r\n\r\n  /// @notice Emitted when a unit is added \r\n  event LogUnitAdded(uint unitNumber); \r\n\r\n  constructor()  {}\r\n\r\n  /// @notice Adds a unit under the ownership of a landlord \r\n  /// @param _unitAddress Address of the unit being listed\r\n  /// @dev The landlord adding the unit must be the owner of the contract \r\n  /// @dev The unit number is automatically assigned\r\n  function addUnit(\r\n    string memory _unitAddress, \r\n    string memory _cid,\r\n    uint _rent, \r\n    uint _deposit,\r\n    uint _term, \r\n    string memory _startDate\r\n    ) onlyOwner public  {\r\n   \r\n\r\n    units[unitCount] = Unit({\r\n     unitNumber: unitCount,\r\n     unitAddress: _unitAddress,\r\n     cid:_cid,\r\n     state: State.ForRent,\r\n     rent: _rent,\r\n     deposit: _deposit,\r\n     term: _term,\r\n     startDate: _startDate,\r\n     landlord: payable(msg.sender),\r\n     tenant: payable(address(0))\r\n    });\r\n    \r\n    emit LogUnitAdded(unitCount);\r\n    emit LogForRent(unitCount);\r\n    unitCount = unitCount + 1;\r\n    \r\n  \r\n  }\r\n\r\n  \r\n\r\n  /// @notice Allows landlord/tenant to fetch the details of a unit\r\n  /// @param _unitNumber The unit number to be fetched\r\n  function fetchUnit(uint _unitNumber) public view \r\n      returns (\r\n        uint unitNumber, \r\n        string memory unitAddress,\r\n        string memory cid,\r\n        uint state, \r\n        uint rent, \r\n        uint deposit,\r\n        uint term, \r\n        string memory startDate, \r\n        address landlord, \r\n        address tenant\r\n        )  \r\n    {\r\n      unitNumber = units[_unitNumber].unitNumber; \r\n      unitAddress =  units[_unitNumber].unitAddress;\r\n      cid = units[_unitNumber].cid;\r\n      state = uint(units[_unitNumber].state); \r\n      rent = units[_unitNumber].rent;\r\n      deposit = units[_unitNumber].deposit;\r\n      term = units[_unitNumber].term;\r\n      startDate = units[_unitNumber].startDate; \r\n      landlord = units[_unitNumber].landlord; \r\n      tenant = units[_unitNumber].tenant; \r\n      return (unitNumber, unitAddress ,cid, state,rent, deposit, term, startDate,  landlord, tenant); \r\n    } \r\n  \r\n}\r\n",
  "sourcePath": "C:\\Users\\Kunal\\Desktop\\rental_dapp\\contracts\\Rentals.sol",
  "compiler": {
    "name": "solc",
    "version": "0.8.0+commit.c7dfd78e.Emscripten.clang"
  },
  "schemaVersion": "3.4.11",
  "updatedAt": "2022-12-05T13:17:21.795Z",
  "networkType": "ethereum",
  "devdoc": {
    "events": {
      "LogForRent(uint256)": {
        "params": {
          "unitNumber": "Unit Number requiring state change"
        }
      }
    },
    "kind": "dev",
    "methods": {
      "addUnit(string,string,uint256,uint256,uint256,string)": {
        "details": "The landlord adding the unit must be the owner of the contract The unit number is automatically assigned",
        "params": {
          "_unitAddress": "Address of the unit being listed"
        }
      },
      "fetchUnit(uint256)": {
        "params": {
          "_unitNumber": "The unit number to be fetched"
        }
      },
      "owner()": {
        "details": "Returns the address of the current owner."
      },
      "renounceOwnership()": {
        "details": "Leaves the contract without owner. It will not be possible to call `onlyOwner` functions anymore. Can only be called by the current owner. NOTE: Renouncing ownership will leave the contract without an owner, thereby removing any functionality that is only available to the owner."
      },
      "transferOwnership(address)": {
        "details": "Transfers ownership of the contract to a new account (`newOwner`). Can only be called by the current owner."
      }
    },
    "version": 1
  },
  "userdoc": {
    "events": {
      "LogForRent(uint256)": {
        "notice": "Emitted when a unit is added and listed of rent"
      },
      "LogUnitAdded(uint256)": {
        "notice": "Emitted when a unit is added "
      }
    },
    "kind": "user",
    "methods": {
      "addUnit(string,string,uint256,uint256,uint256,string)": {
        "notice": "Adds a unit under the ownership of a landlord "
      },
      "fetchUnit(uint256)": {
        "notice": "Allows landlord/tenant to fetch the details of a unit"
      },
      "unitCount()": {
        "notice": "Emitted when a new unit is added to the contract"
      }
    },
    "version": 1
  }
}