{
  "contractName": "Rentals",
  "abi": [
    {
      "inputs": [],
      "stateMutability": "nonpayable",
      "type": "constructor"
    },
    {
      "anonymous": false,
      "inputs": [
        {
          "indexed": false,
          "internalType": "uint256",
          "name": "unitNumber",
          "type": "uint256"
        }
      ],
      "name": "LogForRent",
      "type": "event"
    },
    {
      "anonymous": false,
      "inputs": [
        {
          "indexed": false,
          "internalType": "uint256",
          "name": "unitNumber",
          "type": "uint256"
        }
      ],
      "name": "LogUnitAdded",
      "type": "event"
    },
    {
      "anonymous": false,
      "inputs": [
        {
          "indexed": true,
          "internalType": "address",
          "name": "previousOwner",
          "type": "address"
        },
        {
          "indexed": true,
          "internalType": "address",
          "name": "newOwner",
          "type": "address"
        }
      ],
      "name": "OwnershipTransferred",
      "type": "event"
    },
    {
      "inputs": [],
      "name": "owner",
      "outputs": [
        {
          "internalType": "address",
          "name": "",
          "type": "address"
        }
      ],
      "stateMutability": "view",
      "type": "function",
      "constant": true
    },
    {
      "inputs": [],
      "name": "renounceOwnership",
      "outputs": [],
      "stateMutability": "nonpayable",
      "type": "function"
    },
    {
      "inputs": [
        {
          "internalType": "address",
          "name": "newOwner",
          "type": "address"
        }
      ],
      "name": "transferOwnership",
      "outputs": [],
      "stateMutability": "nonpayable",
      "type": "function"
    },
    {
      "inputs": [],
      "name": "unitCount",
      "outputs": [
        {
          "internalType": "uint256",
          "name": "",
          "type": "uint256"
        }
      ],
      "stateMutability": "view",
      "type": "function",
      "constant": true
    },
    {
      "inputs": [
        {
          "internalType": "uint256",
          "name": "",
          "type": "uint256"
        }
      ],
      "name": "units",
      "outputs": [
        {
          "internalType": "uint256",
          "name": "unitNumber",
          "type": "uint256"
        },
        {
          "internalType": "string",
          "name": "unitAddress",
          "type": "string"
        },
        {
          "internalType": "string",
          "name": "cid",
          "type": "string"
        },
        {
          "internalType": "enum Rentals.State",
          "name": "state",
          "type": "uint8"
        },
        {
          "internalType": "uint256",
          "name": "rent",
          "type": "uint256"
        },
        {
          "internalType": "uint256",
          "name": "deposit",
          "type": "uint256"
        },
        {
          "internalType": "uint256",
          "name": "area",
          "type": "uint256"
        },
        {
          "internalType": "uint256",
          "name": "bhk",
          "type": "uint256"
        },
        {
          "internalType": "uint256",
          "name": "bathrooms",
          "type": "uint256"
        },
        {
          "internalType": "string",
          "name": "reraNumber",
          "type": "string"
        },
        {
          "internalType": "address payable",
          "name": "landlord",
          "type": "address"
        },
        {
          "internalType": "address payable",
          "name": "tenant",
          "type": "address"
        }
      ],
      "stateMutability": "view",
      "type": "function",
      "constant": true
    },
    {
      "inputs": [
        {
          "internalType": "string",
          "name": "_unitAddress",
          "type": "string"
        },
        {
          "internalType": "string",
          "name": "_cid",
          "type": "string"
        },
        {
          "internalType": "uint256",
          "name": "_rent",
          "type": "uint256"
        },
        {
          "internalType": "uint256",
          "name": "_deposit",
          "type": "uint256"
        },
        {
          "internalType": "uint256",
          "name": "_area",
          "type": "uint256"
        },
        {
          "internalType": "uint256",
          "name": "_bhk",
          "type": "uint256"
        },
        {
          "internalType": "uint256",
          "name": "_bathrooms",
          "type": "uint256"
        },
        {
          "internalType": "string",
          "name": "_reraNumber",
          "type": "string"
        }
      ],
      "name": "addUnit",
      "outputs": [],
      "stateMutability": "nonpayable",
      "type": "function"
    },
    {
      "inputs": [
        {
          "internalType": "uint256",
          "name": "_unitNumber",
          "type": "uint256"
        }
      ],
      "name": "fetchUnit",
      "outputs": [
        {
          "internalType": "uint256",
          "name": "unitNumber",
          "type": "uint256"
        },
        {
          "internalType": "string",
          "name": "unitAddress",
          "type": "string"
        },
        {
          "internalType": "string",
          "name": "cid",
          "type": "string"
        },
        {
          "internalType": "uint256",
          "name": "state",
          "type": "uint256"
        },
        {
          "internalType": "uint256",
          "name": "rent",
          "type": "uint256"
        },
        {
          "internalType": "uint256",
          "name": "deposit",
          "type": "uint256"
        },
        {
          "internalType": "uint256",
          "name": "area",
          "type": "uint256"
        },
        {
          "internalType": "uint256",
          "name": "bhk",
          "type": "uint256"
        },
        {
          "internalType": "uint256",
          "name": "bathrooms",
          "type": "uint256"
        },
        {
          "internalType": "string",
          "name": "reraNumber",
          "type": "string"
        },
        {
          "internalType": "address",
          "name": "landlord",
          "type": "address"
        },
        {
          "internalType": "address",
          "name": "tenant",
          "type": "address"
        }
      ],
      "stateMutability": "view",
      "type": "function",
      "constant": true
    }
  ],
  "bytecode": "0x60806040526001805534801561001457600080fd5b5061003161002661003660201b60201c565b61003e60201b60201c565b610102565b600033905090565b60008060009054906101000a900473ffffffffffffffffffffffffffffffffffffffff169050816000806101000a81548173ffffffffffffffffffffffffffffffffffffffff021916908373ffffffffffffffffffffffffffffffffffffffff1602179055508173ffffffffffffffffffffffffffffffffffffffff168173ffffffffffffffffffffffffffffffffffffffff167f8be0079c531659141344cd1fd0a4f28419497f9722a3daafe3b4186f6b6457e060405160405180910390a35050565b6114cb806101116000396000f3fe608060405234801561001057600080fd5b506004361061007d5760003560e01c80638da5cb5b1161005b5780638da5cb5b146100e3578063e5fba6cc14610101578063f2fde38b1461013c578063f584fbf6146101585761007d565b8063083c4fba14610082578063715018a61461009e5780638b7b0537146100a8575b600080fd5b61009c60048036038101906100979190610d7a565b610176565b005b6100a661045b565b005b6100c260048036038101906100bd9190610e74565b61046f565b6040516100da9c9b9a999897969594939291906110fd565b60405180910390f35b6100eb6107da565b6040516100f89190610fb8565b60405180910390f35b61011b60048036038101906101169190610e74565b610803565b6040516101339c9b9a9998979695949392919061102e565b60405180910390f35b61015660048036038101906101519190610d51565b610a48565b005b610160610acc565b60405161016d9190611013565b60405180910390f35b61017e610ad2565b6040518061018001604052806001548152602001898152602001888152602001600060018111156101d8577f4e487b7100000000000000000000000000000000000000000000000000000000600052602160045260246000fd5b81526020018781526020018681526020018581526020018481526020018381526020018281526020013373ffffffffffffffffffffffffffffffffffffffff168152602001600073ffffffffffffffffffffffffffffffffffffffff16815250600260006001548152602001908152602001600020600082015181600001556020820151816001019080519060200190610273929190610c1c565b506040820151816002019080519060200190610290929190610c1c565b5060608201518160030160006101000a81548160ff021916908360018111156102e2577f4e487b7100000000000000000000000000000000000000000000000000000000600052602160045260246000fd5b02179055506080820151816004015560a0820151816005015560c0820151816006015560e082015181600701556101008201518160080155610120820151816009019080519060200190610337929190610c1c565b5061014082015181600a0160006101000a81548173ffffffffffffffffffffffffffffffffffffffff021916908373ffffffffffffffffffffffffffffffffffffffff16021790555061016082015181600b0160006101000a81548173ffffffffffffffffffffffffffffffffffffffff021916908373ffffffffffffffffffffffffffffffffffffffff1602179055509050507f9f766be9553a6f64c84baf47414111171633afad6f2ad2d04e59c7f30a92b9b06001546040516103fc9190611013565b60405180910390a17faff779a2b0f7d6ac7566ca9920c1a4cf550c9691db23499a78d4eac3875b76b26001546040516104359190611013565b60405180910390a16001805461044b9190611249565b6001819055505050505050505050565b610463610ad2565b61046d6000610b50565b565b60006060806000806000806000806060600080600260008e8152602001908152602001600020600001549b50600260008e815260200190815260200160002060010180546104bc90611354565b80601f01602080910402602001604051908101604052809291908181526020018280546104e890611354565b80156105355780601f1061050a57610100808354040283529160200191610535565b820191906000526020600020905b81548152906001019060200180831161051857829003601f168201915b50505050509a50600260008e8152602001908152602001600020600201805461055d90611354565b80601f016020809104026020016040519081016040528092919081815260200182805461058990611354565b80156105d65780601f106105ab576101008083540402835291602001916105d6565b820191906000526020600020905b8154815290600101906020018083116105b957829003601f168201915b50505050509950600260008e815260200190815260200160002060030160009054906101000a900460ff166001811115610639577f4e487b7100000000000000000000000000000000000000000000000000000000600052602160045260246000fd5b9850600260008e8152602001908152602001600020600401549750600260008e8152602001908152602001600020600501549650600260008e8152602001908152602001600020600601549550600260008e8152602001908152602001600020600701549450600260008e8152602001908152602001600020600801549350600260008e815260200190815260200160002060090180546106d990611354565b80601f016020809104026020016040519081016040528092919081815260200182805461070590611354565b80156107525780601f1061072757610100808354040283529160200191610752565b820191906000526020600020905b81548152906001019060200180831161073557829003601f168201915b50505050509250600260008e8152602001908152602001600020600a0160009054906101000a900473ffffffffffffffffffffffffffffffffffffffff169150600260008e8152602001908152602001600020600b0160009054906101000a900473ffffffffffffffffffffffffffffffffffffffff16905091939597999b5091939597999b565b60008060009054906101000a900473ffffffffffffffffffffffffffffffffffffffff16905090565b600260205280600052604060002060009150905080600001549080600101805461082c90611354565b80601f016020809104026020016040519081016040528092919081815260200182805461085890611354565b80156108a55780601f1061087a576101008083540402835291602001916108a5565b820191906000526020600020905b81548152906001019060200180831161088857829003601f168201915b5050505050908060020180546108ba90611354565b80601f01602080910402602001604051908101604052809291908181526020018280546108e690611354565b80156109335780601f1061090857610100808354040283529160200191610933565b820191906000526020600020905b81548152906001019060200180831161091657829003601f168201915b5050505050908060030160009054906101000a900460ff169080600401549080600501549080600601549080600701549080600801549080600901805461097990611354565b80601f01602080910402602001604051908101604052809291908181526020018280546109a590611354565b80156109f25780601f106109c7576101008083540402835291602001916109f2565b820191906000526020600020905b8154815290600101906020018083116109d557829003601f168201915b50505050509080600a0160009054906101000a900473ffffffffffffffffffffffffffffffffffffffff169080600b0160009054906101000a900473ffffffffffffffffffffffffffffffffffffffff1690508c565b610a50610ad2565b600073ffffffffffffffffffffffffffffffffffffffff168173ffffffffffffffffffffffffffffffffffffffff161415610ac0576040517f08c379a0000000000000000000000000000000000000000000000000000000008152600401610ab790610fd3565b60405180910390fd5b610ac981610b50565b50565b60015481565b610ada610c14565b73ffffffffffffffffffffffffffffffffffffffff16610af86107da565b73ffffffffffffffffffffffffffffffffffffffff1614610b4e576040517f08c379a0000000000000000000000000000000000000000000000000000000008152600401610b4590610ff3565b60405180910390fd5b565b60008060009054906101000a900473ffffffffffffffffffffffffffffffffffffffff169050816000806101000a81548173ffffffffffffffffffffffffffffffffffffffff021916908373ffffffffffffffffffffffffffffffffffffffff1602179055508173ffffffffffffffffffffffffffffffffffffffff168173ffffffffffffffffffffffffffffffffffffffff167f8be0079c531659141344cd1fd0a4f28419497f9722a3daafe3b4186f6b6457e060405160405180910390a35050565b600033905090565b828054610c2890611354565b90600052602060002090601f016020900481019282610c4a5760008555610c91565b82601f10610c6357805160ff1916838001178555610c91565b82800160010185558215610c91579182015b82811115610c90578251825591602001919060010190610c75565b5b509050610c9e9190610ca2565b5090565b5b80821115610cbb576000816000905550600101610ca3565b5090565b6000610cd2610ccd846111fd565b6111cc565b905082815260208101848484011115610cea57600080fd5b610cf5848285611312565b509392505050565b600081359050610d0c81611467565b92915050565b600082601f830112610d2357600080fd5b8135610d33848260208601610cbf565b91505092915050565b600081359050610d4b8161147e565b92915050565b600060208284031215610d6357600080fd5b6000610d7184828501610cfd565b91505092915050565b600080600080600080600080610100898b031215610d9757600080fd5b600089013567ffffffffffffffff811115610db157600080fd5b610dbd8b828c01610d12565b985050602089013567ffffffffffffffff811115610dda57600080fd5b610de68b828c01610d12565b9750506040610df78b828c01610d3c565b9650506060610e088b828c01610d3c565b9550506080610e198b828c01610d3c565b94505060a0610e2a8b828c01610d3c565b93505060c0610e3b8b828c01610d3c565b92505060e089013567ffffffffffffffff811115610e5857600080fd5b610e648b828c01610d12565b9150509295985092959890939650565b600060208284031215610e8657600080fd5b6000610e9484828501610d3c565b91505092915050565b610ea6816112b1565b82525050565b610eb58161129f565b82525050565b610ec481611300565b82525050565b6000610ed58261122d565b610edf8185611238565b9350610eef818560208601611321565b610ef881611442565b840191505092915050565b6000610f10602683611238565b91507f4f776e61626c653a206e6577206f776e657220697320746865207a65726f206160008301527f64647265737300000000000000000000000000000000000000000000000000006020830152604082019050919050565b6000610f76602083611238565b91507f4f776e61626c653a2063616c6c6572206973206e6f7420746865206f776e65726000830152602082019050919050565b610fb2816112f6565b82525050565b6000602082019050610fcd6000830184610eac565b92915050565b60006020820190508181036000830152610fec81610f03565b9050919050565b6000602082019050818103600083015261100c81610f69565b9050919050565b60006020820190506110286000830184610fa9565b92915050565b600061018082019050611044600083018f610fa9565b8181036020830152611056818e610eca565b9050818103604083015261106a818d610eca565b9050611079606083018c610ebb565b611086608083018b610fa9565b61109360a083018a610fa9565b6110a060c0830189610fa9565b6110ad60e0830188610fa9565b6110bb610100830187610fa9565b8181036101208301526110ce8186610eca565b90506110de610140830185610e9d565b6110ec610160830184610e9d565b9d9c50505050505050505050505050565b600061018082019050611113600083018f610fa9565b8181036020830152611125818e610eca565b90508181036040830152611139818d610eca565b9050611148606083018c610fa9565b611155608083018b610fa9565b61116260a083018a610fa9565b61116f60c0830189610fa9565b61117c60e0830188610fa9565b61118a610100830187610fa9565b81810361012083015261119d8186610eca565b90506111ad610140830185610eac565b6111bb610160830184610eac565b9d9c50505050505050505050505050565b6000604051905081810181811067ffffffffffffffff821117156111f3576111f2611413565b5b8060405250919050565b600067ffffffffffffffff82111561121857611217611413565b5b601f19601f8301169050602081019050919050565b600081519050919050565b600082825260208201905092915050565b6000611254826112f6565b915061125f836112f6565b9250827fffffffffffffffffffffffffffffffffffffffffffffffffffffffffffffffff0382111561129457611293611386565b5b828201905092915050565b60006112aa826112d6565b9050919050565b60006112bc826112d6565b9050919050565b60008190506112d182611453565b919050565b600073ffffffffffffffffffffffffffffffffffffffff82169050919050565b6000819050919050565b600061130b826112c3565b9050919050565b82818337600083830152505050565b60005b8381101561133f578082015181840152602081019050611324565b8381111561134e576000848401525b50505050565b6000600282049050600182168061136c57607f821691505b602082108114156113805761137f6113e4565b5b50919050565b7f4e487b7100000000000000000000000000000000000000000000000000000000600052601160045260246000fd5b7f4e487b7100000000000000000000000000000000000000000000000000000000600052602160045260246000fd5b7f4e487b7100000000000000000000000000000000000000000000000000000000600052602260045260246000fd5b7f4e487b7100000000000000000000000000000000000000000000000000000000600052604160045260246000fd5b6000601f19601f8301169050919050565b60028110611464576114636113b5565b5b50565b6114708161129f565b811461147b57600080fd5b50565b611487816112f6565b811461149257600080fd5b5056fea2646970667358221220df0f6993a828a0a2d3fb185e6299f639b6cd03a935ae09ab15220dbc3101d10464736f6c63430008000033",
  "immutableReferences": {},
  "source": "// SPDX-License-Identifier: MIT\r\npragma solidity ^0.8.0;\r\n\r\n\r\nimport \"@openzeppelin/contracts/access/Ownable.sol\";\r\n\r\ncontract Rentals is Ownable {\r\n\r\n  /// @notice Emitted when a new unit is added to the contract\r\n  uint public unitCount = 1; \r\n\r\n\r\n  struct Unit {\r\n    uint unitNumber;\r\n    string unitAddress;\r\n    string cid;\r\n    State state;\r\n    uint rent; \r\n    uint deposit;\r\n    uint area;\r\n    uint bhk;\r\n    uint bathrooms;\r\n    string reraNumber;\r\n    address payable landlord;\r\n    address payable tenant;\r\n  }\r\n  // struct UnitDetails {\r\n  //   uint area;\r\n    // uint bhk;\r\n    // uint bathrooms;\r\n  //   string preferredTenant;\r\n  // }\r\n\r\n  // <units mapping>\r\n  mapping (uint => Unit) public units;\r\n//mapping (uint => UnitDetails) public unitDetails;\r\n\r\n  // <enum State: Vacant, Occupied>\r\n  enum State { ForRent, Occupied}\r\n\r\n\r\n  /// @notice Emitted when a unit is added and listed of rent\r\n  /// @param unitNumber Unit Number requiring state change\r\n  event LogForRent(uint unitNumber);\r\n\r\n  /// @notice Emitted when a unit is added \r\n  event LogUnitAdded(uint unitNumber); \r\n\r\n  constructor()  {}\r\n\r\n  /// @notice Adds a unit under the ownership of a landlord \r\n  /// @param _unitAddress Address of the unit being listed\r\n  /// @dev The landlord adding the unit must be the owner of the contract \r\n  /// @dev The unit number is automatically assigned\r\n  function addUnit(\r\n    string memory _unitAddress, \r\n    string memory _cid,\r\n    uint _rent, \r\n    uint _deposit,\r\n    uint _area,\r\n    uint _bhk,\r\n    uint _bathrooms,\r\n    string memory _reraNumber\r\n    ) onlyOwner public  {\r\n   \r\n\r\n    units[unitCount] = Unit({\r\n     unitNumber: unitCount,\r\n     unitAddress: _unitAddress,\r\n     cid:_cid,\r\n     state: State.ForRent,\r\n     rent: _rent,\r\n     deposit: _deposit,\r\n     area:_area,\r\n     bhk:_bhk,\r\n     bathrooms:_bathrooms,\r\n     reraNumber:_reraNumber,\r\n     landlord: payable(msg.sender),\r\n     tenant: payable(address(0))\r\n    });\r\n    \r\n    emit LogUnitAdded(unitCount);\r\n    emit LogForRent(unitCount);\r\n    unitCount = unitCount + 1;\r\n  \r\n  }\r\n  //  function addUnitDetails(\r\n  //     uint _area,\r\n  //     uint _bhk,\r\n  //     uint _bathrooms,\r\n  //     string memory _preferredTenant\r\n  //   ) onlyOwner public {\r\n  //       unitDetails[unitCount]=UnitDetails({\r\n  //         area: _area,\r\n  //         bhk: _bhk,\r\n  //         bathrooms: _bathrooms,\r\n  //         preferredTenant: _preferredTenant\r\n  //       });\r\n  //   }\r\n  \r\n\r\n  /// @notice Allows landlord/tenant to fetch the details of a unit\r\n  /// @param _unitNumber The unit number to be fetched\r\n  function fetchUnit(uint _unitNumber) public view \r\n      returns (\r\n        uint unitNumber, \r\n        string memory unitAddress,\r\n        string memory cid,\r\n        uint state, \r\n        uint rent, \r\n        uint deposit,\r\n        uint area,\r\n        uint bhk,\r\n        uint bathrooms,\r\n        string memory reraNumber,\r\n        address landlord, \r\n        address tenant\r\n        )  \r\n    {\r\n      unitNumber = units[_unitNumber].unitNumber; \r\n      unitAddress =  units[_unitNumber].unitAddress;\r\n      cid = units[_unitNumber].cid;\r\n      state = uint(units[_unitNumber].state); \r\n      rent = units[_unitNumber].rent;\r\n      deposit = units[_unitNumber].deposit;\r\n      area=units[_unitNumber].area;\r\n      bhk = units[_unitNumber].bhk;\r\n      bathrooms = units[_unitNumber].bathrooms;\r\n      reraNumber= units[_unitNumber].reraNumber;\r\n      landlord = units[_unitNumber].landlord; \r\n      tenant = units[_unitNumber].tenant; \r\n      return (unitNumber, unitAddress ,cid, state,rent, deposit,area,bhk,bathrooms,reraNumber,landlord, tenant); \r\n    } \r\n  // function fetchUnitDetails(uint _unitNumber) public view\r\n  //     returns(\r\n  //         uint area,\r\n  //         uint bhk,\r\n  //         uint bathrooms,\r\n  //         string memory preferredTenant\r\n  //     )\r\n  //   {\r\n  //       area= unitDetails[_unitNumber].area;\r\n      // bhk = unitDetails[_unitNumber].bhk;\r\n      // bathrooms = unitDetails[_unitNumber].bathrooms;\r\n  //     preferredTenant = unitDetails[_unitNumber].preferredTenant;\r\n  //   }\r\n\r\n  \r\n}\r\n",
  "sourcePath": "C:\\Users\\Kunal\\Desktop\\rental_dapp\\contracts\\Rentals.sol",
  "compiler": {
    "name": "solc",
    "version": "0.8.0+commit.c7dfd78e.Emscripten.clang"
  },
  "schemaVersion": "3.4.11",
  "updatedAt": "2022-12-14T17:17:55.371Z",
  "networkType": "ethereum",
  "devdoc": {
    "events": {
      "LogForRent(uint256)": {
        "params": {
          "unitNumber": "Unit Number requiring state change"
        }
      }
    },
    "kind": "dev",
    "methods": {
      "addUnit(string,string,uint256,uint256,uint256,uint256,uint256,string)": {
        "details": "The landlord adding the unit must be the owner of the contract The unit number is automatically assigned",
        "params": {
          "_unitAddress": "Address of the unit being listed"
        }
      },
      "fetchUnit(uint256)": {
        "params": {
          "_unitNumber": "The unit number to be fetched"
        }
      },
      "owner()": {
        "details": "Returns the address of the current owner."
      },
      "renounceOwnership()": {
        "details": "Leaves the contract without owner. It will not be possible to call `onlyOwner` functions anymore. Can only be called by the current owner. NOTE: Renouncing ownership will leave the contract without an owner, thereby removing any functionality that is only available to the owner."
      },
      "transferOwnership(address)": {
        "details": "Transfers ownership of the contract to a new account (`newOwner`). Can only be called by the current owner."
      }
    },
    "version": 1
  },
  "userdoc": {
    "events": {
      "LogForRent(uint256)": {
        "notice": "Emitted when a unit is added and listed of rent"
      },
      "LogUnitAdded(uint256)": {
        "notice": "Emitted when a unit is added "
      }
    },
    "kind": "user",
    "methods": {
      "addUnit(string,string,uint256,uint256,uint256,uint256,uint256,string)": {
        "notice": "Adds a unit under the ownership of a landlord "
      },
      "fetchUnit(uint256)": {
        "notice": "Allows landlord/tenant to fetch the details of a unit"
      },
      "unitCount()": {
        "notice": "Emitted when a new unit is added to the contract"
      }
    },
    "version": 1
  }
}